:100000000EC028C027C026C025C024C023C022C0DF
:1000100021C020C0A5C11EC01DC01CC01BC0112412
:100020001FBECFE5D1E0DEBFCDBF10E0A0E6B0E05F
:10003000E4EBF9E002C005900D92A239B107D9F7BF
:1000400010E0A2E9B0E001C01D92A53AB107E1F7C6
:100050003FD3AEC4D5CF83E680BF80E68CBD1EBC47
:100060001BBC82E08ABD85E083BF80E189BF89E156
:1000700089BD089520E030E064E274EFF901E05AB0
:10008000FF4F80818D6088BB40E050E098B3FA015B
:10009000EE59FF4F80818095892388BBCB01019762
:1000A000F1F788B38D6088BB4F5F5F4F43305105D8
:1000B00069F72F5F3F4F2230310501F784E294EF5B
:1000C0000197F1F70895B4D390939500809394002D
:1000D0008091A400833009F4A4C0843030F48130CE
:1000E00091F0823008F05BC00AC0853009F4E5C0A9
:1000F000853008F4BCC0863009F0EAC0E4C0109234
:10010000A20088988998809194009091950063E06E
:1001100070E01AD380939700E0919700F0E0EE59D9
:10012000FF4F80818093A200809194009091950070
:10013000982F917081B38E7F892B81BB309197006E
:100140002091A10091B3917081B3869586958170BD
:10015000981759F4321749F481B38695869580959E
:10016000817091B39E7F982B91BB81B380958170F4
:10017000880F91B39D7F982B91BB81B3807209F456
:10018000A7C08091A2008093930091B3990F990F1B
:10019000990F907181B38F7E892B81BB08958091D7
:1001A000940090919500982F917081B38E7F892B48
:1001B00081BB81B380958170880F91B39D7F982B0F
:1001C00091BB2091A00091B3917081B386958695E3
:1001D0008170981729F4222319F08091A10007C09B
:1001E000809194009091950063E070E0ADD280938F
:1001F0009700E0919700F0E0EE59FF4F80818095E5
:100200008D708093A20081B3807209F461C08091E7
:1002100094009091950024E0880F991F2A95E1F7AA
:100220001DC08DE08093A200809194009091950074
:10023000982F917081B38E7F892B81BB81B380957C
:100240008170880F91B39D7F982B91BB81B3807291
:1002500009F43EC0809194009091950063E070E0B5
:1002600073D29C012E593F4FF90180811AC08091B1
:1002700094009091950063E070E066D280939700BF
:10028000E0919700F0E0EE59FF4F808180958D70EE
:100290008093A200889A899A81B38072C9F0809174
:1002A000A2008093930081B3809581708295807FB6
:1002B00091B39F7E982B91BB08958091A4008F5F8E
:1002C0008093A40008958DE08093A200889A899A73
:1002D0000895AED267E370E04BD2809580939C0086
:1002E000A7D260E170E044D28C5F80939D00A0D2E1
:1002F0006CE070E03DD28C5F80939B0010929F0079
:100300001092A0008D9894D268E070E031D28E5A9D
:10031000809396008DD269E170E02AD28095809317
:10032000980086D263E070E023D28093A10080D24F
:1003300062E070E01DD28170880F880F91B39B7FBF
:10034000982B91BB81B38695869580958170880F97
:10035000880F880F91B3977F982B91BBB4DE0895D7
:100360001F920F920FB60F9211240F931F932F938A
:100370003F934F935F936F937F938F939F93AF932D
:10038000BF93EF93FF9380919F008F5F80939F00B7
:1003900080919F008431E0F48091A4008823C1F013
:1003A0008091A200809588BB81B3817039F0E09183
:1003B0009F00F0E0EB59FF4F80818EBD81B38270CA
:1003C00039F0E0919F00F0E0EB59FF4F80818BBD49
:1003D00081B3807271F130919F002091A3008091D0
:1003E000A30040919F0090E0439650E0841795074A
:1003F00004F12317F0F480919300809588BB81B3BA
:10040000807161F0E0919F008091A300F0E0E81B13
:10041000F109EB59FF4F80818EBD0BC0E0919F0029
:100420008091A300F0E0E81BF109EB59FF4F8081B8
:100430008BBD8091A0008823A1F130919F00209175
:1004400096008091960040919F0090E0439650E086
:100450008417950734F1231720F5E091A100F0E00F
:10046000EE59FF4F8081809588BB81B3847059F02D
:10047000E0919F0080919600F0E0E81BF109E758B9
:10048000FF4F80818EBD81B3887059F0E0919F004D
:1004900080919600F0E0E81BF109E758FF4F80815A
:1004A0008BBD90919F0080919800981709F0FDC036
:1004B00080919C00815080939C0080919C008823B7
:1004C00049F4809192008F5F8093920002DF109236
:1004D000A400EBC081B3807209F46FC09091A300B7
:1004E00080919E00890F8093A3008091A3008431A6
:1004F000E0F48091A4008130E9F59AD163E070E0E6
:1005000037D19DEF981B90939E002091A30080917E
:100510009E0030E0992787FD9095909581959F4F9B
:10052000281739070CF0B5C025C08091980020919C
:10053000A30090E0821B91098838910594F1809185
:1005400098004091A3006091A30020919800E09151
:100550009E0070E030E0FF27E7FDF0952E1B3F0B7B
:10056000261737073CF090E04397242F30E02817F8
:1005700039073CF08091A4008F5F8093A4008D9890
:1005800088C02091A4008091A3003091A30090E046
:10059000831B9109883891050CF07BC0213009F04C
:1005A00078C084E18093A30043D163E070E0E0D0A1
:1005B0009DEF981B90939E006CC01091A40038D1C1
:1005C00060919D0070E0D4D0009709F043C01630D0
:1005D00008F040C08091A400882321F481E080933A
:1005E000A40057C025D16091980070E0C1D08093DD
:1005F000A3008091A300843120F48091A3008C5E3D
:100600000DC0809198002091A30090E0821B910979
:10061000843191052CF48091A30084518093A30030
:1006200007D168E270E0A4D0865F80939E0000D17D
:100630002091A30062E070E09BD0009711F42C336E
:1006400028F480919E00819580939E008D9A10924F
:10065000A0001FC01091A0000091A400E9D06091FB
:100660009B0020E030E070E083D0009711F421E09F
:1006700030E090E0011191E080E0112309F481E085
:10068000892390E082239323009719F081E08093DF
:10069000A0008091A400853029F48091A4008F5F90
:1006A0008093A40010DD10929F00FF91EF91BF9105
:1006B000AF919F918F917F916F915F914F913F91FA
:1006C0002F911F910F910F900FBE0F901F901895B3
:1006D0008FE187BB8DE088BB80E090E0B8D090933D
:1006E0009A00809399008091990090919A000196C8
:1006F00090939A00809399008091990090919A002C
:100700009BD06091990070919A0080E090E0A3D016
:10071000E0DD81E08093A40085B7877E85BF9BDC08
:1007200078949DE080919200863030F0F89498BBE8
:1007300085B7877E806185BF85B7806285BF8895D4
:1007400085B78F7D85BFEECFAA1BBB1B51E107C0CC
:10075000AA1FBB1FA617B70710F0A61BB70B881F51
:10076000991F5A95A9F780959095BC01CD010895E0
:1007700097FB092E07260AD077FD04D0E5DF06D0C7
:1007800000201AF4709561957F4F0895F6F79095C3
:1007900081959F4F0895A0E0B0E0E0EDF3E0B7C091
:1007A000EC01688179818A819B81611571058105E0
:1007B000910549F484E2A82E89EDB82E8BE5C82E68
:1007C00087E0D82E02C05B016C01C601B5012DE1A6
:1007D00033EF41E050E078D027EA31E440E050E0E8
:1007E0005AD07B018C01C601B5012DE133EF41E008
:1007F00050E06AD0CA01B90124E13BE040E050E09A
:100800004AD0E61AF70A080B190BD801C70117FFDF
:1008100004C081509040A040B04888839983AA8347
:10082000BB839F77EAE0CDB7DEB78DC0B4DF089514
:100830008DE890E0B0DF0895AA27BB2780938D0054
:1008400090938E00A0938F00B09390000895A8E13C
:10085000B0E042E005C011D0272F10C0DC01862F88
:10086000E82FE199FECF1FBA05C0EEBBE09AE395F1
:100870000DB20D924150C8F70895262FE199FECF91
:100880001CBA1FBA8EBB2DBB0FB6F894E29AE19A40
:100890000FBE01960895FF27EE27BB27AA2760FF0A
:1008A00004C0A20FB31FE41FF51F220F331F441F04
:1008B000551F969587957795679589F700977607E1
:1008C00071F7CF01BD01089597FB092E05260ED0C3
:1008D00057FD04D04BD00AD0001C38F450954095F9
:1008E000309521953F4F4F4F5F4F0895F6F7909504
:1008F0008095709561957F4F8F4F9F4F08952F92F0
:100900003F924F925F926F927F928F929F92AF929F
:10091000BF92CF92DF92EF92FF920F931F93CF93EC
:10092000DF93CDB7DEB7CA1BDB0B0FB6F894DEBF83
:100930000FBECDBF09942A88398848885F846E84A9
:100940007D848C849B84AA84B984C884DF80EE80F3
:10095000FD800C811B81AA81B981CE0FD11D0FB6FC
:10096000F894DEBF0FBECDBFED010895A1E21A2EAF
:10097000AA1BBB1BFD010DC0AA1FBB1FEE1FFF1F43
:10098000A217B307E407F50720F0A21BB30BE40B93
:10099000F50B661F771F881F991F1A9469F76095DA
:1009A0007095809590959B01AC01BD01CF01089594
:0409B000F894FFCFE9
:1009B4000210080401005AA8DFFCFFECCAA27A5610
:1009C4003A25160C0703020100000911171A1A1818
:1009D40015110D09060403020101010100010000C3
:0209E400000011
:00000001FF
