:100000000EC028C027C026C025C024C023C022C0DF
:1000100021C020C071C11EC01DC01CC01BC0112446
:100020001FBECFE5D1E0DEBFCDBF10E0A0E6B0E05F
:10003000E2E8F9E002C005900D92A239B107D9F7C4
:1000400010E0A2E9B0E001C01D92A43AB107E1F7C7
:1000500007D396C4D5CF83E680BF80E68CBD1EBC97
:100060001BBC82E08ABD85E083BF80E189BF89E156
:1000700089BD0895C5D39093940080939300809197
:10008000A300833009F49EC0843030F4813091F0B5
:10009000823008F058C00AC0853009F4DAC08530D3
:1000A00008F4B2C0863009F0DFC0D9C01092A100B8
:1000B00088988998809193009091940063E070E013
:1000C0002BD380939600E0919600FF27EE59FF4FC7
:1000D00080818093A1008091930090919400817021
:1000E00021B32E7F282B21BB909196008091A000F8
:1000F00031B3317021B3269526952170981759F4A4
:10010000321749F481B3869586958095817091B3B5
:100110009E7F982B91BB81B380958170880F91B39E
:100120009D7F982B91BB8D9B9FC08091A100809358
:10013000920091B3990F990F990F907181B38F7EAF
:10014000892B81BB089580919300909194008170D8
:1001500021B32E7F282B21BB81B380958170880F1E
:1001600091B39D7F982B91BB80919F0021B321700B
:1001700091B3969596959170882329F0291719F4D3
:100180008091A00007C0809193009091940063E05B
:1001900070E0C2D280939600E0919600FF27EE595E
:1001A000FF4F808180958D708093A1008D9B5CC0F6
:1001B000809193009091940024E0880F991F2A95D4
:1001C000E1F71AC08DE08093A10080919300909197
:1001D0009400817021B32E7F282B21BB81B38095A1
:1001E0008170880F91B39D7F982B91BB8D9B3CC0F4
:1001F000809193009091940063E070E08DD2FC01B7
:10020000EE59FF4F808119C0809193009091940026
:1002100063E070E081D280939600E0919600FF2722
:10022000EE59FF4F808180958D708093A100889A50
:10023000899A8D9B19C08091A1008093920081B30F
:10024000809581708295807F91B39F7E982B91BB22
:1002500008958091A3008F5F8093A30008958DE09F
:100260008093A100889A899A0895CAD26DEC70E0B3
:1002700067D2809580939B00C3D260E170E060D22A
:100280008C5F80939C00BCD26CE070E059D28C5F94
:1002900080939A0010929E0010929F008D98B0D289
:1002A00068E070E04DD28E5A80939500A9D269E142
:1002B00070E046D2809580939700A2D263E070E010
:1002C0003FD28093A0009CD262E070E039D281706E
:1002D000880F880F91B39B7F982B91BB81B3869534
:1002E000869580958170880F880F880F91B3977FCE
:1002F000982B91BBBFDE08951F920F920FB60F92FD
:1003000011240F931F932F933F934F935F936F93FA
:100310007F938F939F93AF93BF93EF93FF938091BE
:100320009E008F5F80939E0080919E008431D0F468
:100330008091A3008823B1F08091A100809588BBB3
:10034000889B07C0E0919E00FF27EB59FF4F8081FB
:100350008EBD899B07C0E0919E00FF27EB59FF4FA0
:1003600080818BBD8D9B2EC090919E008091A200BC
:1003700020919E004091A200891720F53327842FF9
:100380009927449628173907ECF4809192008095BC
:1003900088BB8C9B0CC0E0919E008091A200FF273F
:1003A000E81BF109EB59FF4F80818EBD0BC0E09136
:1003B0009E008091A200FF27E81BF109EB59FF4F37
:1003C00080818BBD80919F00882399F190919E0040
:1003D0008091950020919E0040919500891748F5E5
:1003E0003327842F992744962817390714F5E0916D
:1003F000A000FF27EE59FF4F8081809588BB8A9B24
:100400000BC0E0919E0080919500FF27E81BF10949
:10041000E758FF4F80818EBD8B9B0BC0E0919E0003
:1004200080919500FF27E81BF109E758FF4F808175
:100430008BBD90919E0080919700981709F0FDC0A8
:1004400080919B00815080939B0080919B0088232A
:1004500021F40BDF1092A300F0C08D9B71C080913E
:10046000A20090919D00980F9093A2008091A2000D
:100470008431E0F48091A3008130F1F5C1D163E0D3
:1004800070E05ED19DEF981B90939D002091A2009B
:1004900080919D003327992787FD909590958195B0
:1004A0009F4F281739070CF0BCC026C080919700D9
:1004B0002091A2009927821B910988389105A4F107
:1004C0002091A200809197006091A2005091970026
:1004D00040919D003327992744978217930764F032
:1004E000862F9927252F3327552747FD5095241B05
:1004F000350B281739073CF48091A3008F5F809358
:10050000A3008D988EC08091A3009091A2002091AD
:10051000A200813009F085C0892F9927821B91099B
:10052000883891050CF07DC084E18093A20068D1E9
:1005300063E070E005D19DEF981B90939D0071C022
:100540001091A3005DD160919C00163008F04AC064
:100550007727F6D0892B09F045C08091A300882326
:1005600021F481E08093A3005CC04AD160919700A0
:100570007727E6D08093A2008091A200843120F4F6
:100580008091A2008C5E0CC0809197002091A20007
:100590009927821B910944972CF48091A2008451E1
:1005A0008093A2002DD168E270E0CAD0865F80936C
:1005B0009D0026D12091A20062E070E0C1D040E011
:1005C00050E02C3310F441E050E0482B592B452BE0
:1005D00029F080919D00819580939D008D9A1092C5
:1005E0009F001FC010919F000091A30009D160914E
:1005F0009A0020E030E07727A3D0892B11F421E086
:1006000030E080E0112309F481E090E0011191E0F5
:100610008923992728233923232B19F081E08093FC
:100620009F008091A300853029F48091A3008F5F03
:100630008093A3001FDD10929E00FF91EF91BF9168
:10064000AF919F918F917F916F915F914F913F916A
:100650002F911F910F910F900FBE0F901F90189523
:10066000CFE5D1E0DEBFCDBF8FE187BB8DE088BB9A
:1006700080E090E0D4D0909399008093980080918E
:10068000980090919900019690939900809398001A
:100690008091980090919900B7D0609198007091E6
:1006A000990080E090E0BFD0E0DD81E08093A3007E
:1006B00085B7877E85BFCFDC789485B7806285BF9C
:1006C000889585B78F7D85BFF8CF40E050E0FA016F
:1006D000E05AFF4F80818D6088BB20E030E098B306
:1006E000F901EE59FF4F80818095892388BBE4E2B0
:1006F000F4EFCF010197F1F788B38D6088BB2F5FCE
:100700003F4F2330310559F74F5F5F4F423051055E
:10071000F1F63197F1F70895AA1BBB1B51E107C011
:10072000AA1FBB1FA617B70710F0A61BB70B881F81
:10073000991F5A95A9F780959095BC01CD01089510
:1007400097FB092E07260AD077FD04D0E5DF06D0F7
:1007500000201AF4709561957F4F0895F6F79095F3
:1007600081959F4F0895A0E0B0E0E8EBF3E0B7C0BB
:10077000EC01688179818A819B8161157105810510
:10078000910549F484E2A82E89EDB82E8BE5C82E98
:1007900087E0D82E02C05B016C01C601B5012DE1D6
:1007A00033EF41E050E078D027EA31E440E050E018
:1007B0005AD07B018C01C601B5012DE133EF41E038
:1007C00050E06AD0CA01B90124E13BE040E050E0CA
:1007D0004AD0E61AF70A080B190BD801C70117FF10
:1007E00004C081509040A040B04888839983AA8378
:1007F000BB839F77EAE0CDB7DEB78DC0B4DF089545
:100800008DE890E0B0DF0895AA27BB2780938D0084
:1008100090938E00A0938F00B09390000895A8E16C
:10082000B0E042E005C011D0272F10C0DC01862FB8
:10083000E82FE199FECF1FBA05C0EEBBE09AE39521
:100840000DB20D924150C8F70895262FE199FECFC1
:100850001CBA1FBA8EBB2DBB0FB6F894E29AE19A70
:100860000FBE01960895FF27EE27BB27AA2760FF3A
:1008700004C0A20FB31FE41FF51F220F331F441F34
:10088000551F969587957795679589F70097760711
:1008900071F7CF01BD01089597FB092E05260ED0F3
:1008A00057FD04D04BD00AD0001C38F45095409529
:1008B000309521953F4F4F4F5F4F0895F6F7909534
:1008C0008095709561957F4F8F4F9F4F08952F9220
:1008D0003F924F925F926F927F928F929F92AF92D0
:1008E000BF92CF92DF92EF92FF920F931F93CF931D
:1008F000DF93CDB7DEB7CA1BDB0B0FB6F894DEBFB4
:100900000FBECDBF09942A88398848885F846E84D9
:100910007D848C849B84AA84B984C884DF80EE8023
:10092000FD800C811B81AA81B981CE0FD11D0FB62C
:10093000F894DEBF0FBECDBFED010895A1E21A2EDF
:10094000AA1BBB1BFD010DC0AA1FBB1FEE1FFF1F73
:10095000A217B307E407F50720F0A21BB30BE40BC3
:10096000F50B661F771F881F991F1A9469F760950A
:100970007095809590959B01AC01BD01CF010895C4
:02098000FFCFA7
:100982000210080401005AA8DFFCFFECCAA27A5642
:100992003A25160C0703020100000911171A1A184A
:1009A20015110D09060403020101010100010000F5
:0209B200000043
:00000001FF
