:100000000EC028C027C026C025C024C023C022C0DF
:1000100021C020C0A5C11EC01DC01CC01BC0112412
:100020001FBECFE5D1E0DEBFCDBF10E0A0E6B0E05F
:10003000E4E9F9E002C005900D92A239B107D9F7C1
:1000400010E0A2E9B0E001C01D92A43AB107E1F7C7
:100050003AD39EC4D5CF83E680BF80E68CBD1EBC5C
:100060001BBC82E08ABD85E083BF80E189BF89E156
:1000700089BD089520E030E064E274EFF901E05AB0
:10008000FF4F80818D6088BB40E050E098B3FA015B
:10009000EE59FF4F80818095892388BBCB01019762
:1000A000F1F788B38D6088BB4F5F5F4F43305105D8
:1000B00069F72F5F3F4F2230310501F784E294EF5B
:1000C0000197F1F70895A4D390939400809393003F
:1000D0008091A300833009F4A4C0843030F48130CF
:1000E00091F0823008F05BC00AC0853009F4E5C0A9
:1000F000853008F4BCC0863009F0EAC0E4C0109234
:10010000A10088988998809193009091940063E071
:1001100070E00AD380939600E0919600F0E0EE59EB
:10012000FF4F80818093A100809193009091940073
:10013000982F917081B38E7F892B81BB309196006F
:100140002091A00091B3917081B3869586958170BE
:10015000981759F4321749F481B38695869580959E
:10016000817091B39E7F982B91BB81B380958170F4
:10017000880F91B39D7F982B91BB81B3807209F456
:10018000A7C08091A1008093920091B3990F990F1D
:10019000990F907181B38F7E892B81BB08958091D7
:1001A000930090919400982F917081B38E7F892B4A
:1001B00081BB81B380958170880F91B39D7F982B0F
:1001C00091BB20919F0091B3917081B386958695E4
:1001D0008170981729F4222319F08091A00007C09C
:1001E000809193009091940063E070E09DD28093A1
:1001F0009600E0919600F0E0EE59FF4F80818095E7
:100200008D708093A10081B3807209F461C08091E8
:1002100093009091940024E0880F991F2A95E1F7AC
:100220001DC08DE08093A100809193009091940077
:10023000982F917081B38E7F892B81BB81B380957C
:100240008170880F91B39D7F982B91BB81B3807291
:1002500009F43EC0809193009091940063E070E0B7
:1002600063D29C012E593F4FF90180811AC08091C1
:1002700093009091940063E070E056D280939600D2
:10028000E0919600F0E0EE59FF4F808180958D70EF
:100290008093A100889A899A81B38072C9F0809175
:1002A000A1008093920081B3809581708295807FB8
:1002B00091B39F7E982B91BB08958091A3008F5F8F
:1002C0008093A30008958DE08093A100889A899A75
:1002D00008959ED26DEC70E03BD2809580939B0098
:1002E00097D260E170E034D28C5F80939C0090D212
:1002F0006CE070E02DD28C5F80939A0010929E008B
:1003000010929F008D9884D268E070E021D28E5ABE
:10031000809395007DD269E170E01AD28095809338
:10032000970076D263E070E013D28093A00070D281
:1003300062E070E00DD28170880F880F91B39B7FCF
:10034000982B91BB81B38695869580958170880F97
:10035000880F880F91B3977F982B91BBB4DE0895D7
:100360001F920F920FB60F9211240F931F932F938A
:100370003F934F935F936F937F938F939F93AF932D
:10038000BF93EF93FF9380919E008F5F80939E00B9
:1003900080919E008431E0F48091A3008823C1F015
:1003A0008091A100809588BB81B3817039F0E09184
:1003B0009E00F0E0EB59FF4F80818EBD81B38270CB
:1003C00039F0E0919E00F0E0EB59FF4F80818BBD4A
:1003D00081B3807271F130919E002091A2008091D2
:1003E000A20040919E0090E0439650E0841795074C
:1003F00004F12317F0F480919200809588BB81B3BB
:10040000807161F0E0919E008091A200F0E0E81B15
:10041000F109EB59FF4F80818EBD0BC0E0919E002A
:100420008091A200F0E0E81BF109EB59FF4F8081B9
:100430008BBD80919F008823A1F130919E00209177
:1004400095008091950040919E0090E0439650E089
:100450008417950734F1231720F5E091A000F0E010
:10046000EE59FF4F8081809588BB81B3847059F02D
:10047000E0919E0080919500F0E0E81BF109E758BB
:10048000FF4F80818EBD81B3887059F0E0919E004E
:1004900080919500F0E0E81BF109E758FF4F80815B
:1004A0008BBD90919E0080919700981709F0F8C03D
:1004B00080919B00815080939B0080919B008823BA
:1004C00021F407DF1092A300EBC081B3807209F41E
:1004D0006FC09091A20080919D00890F8093A2002F
:1004E0008091A2008431E0F48091A3008130E9F58D
:1004F0008FD163E070E02CD19DEF981B90939D000D
:100500002091A20080919D0030E0992787FD909571
:10051000909581959F4F281739070CF0B5C025C0DD
:10052000809197002091A20090E0821B9109883869
:10053000910594F1809197004091A2006091A200F2
:1005400020919700E0919D0070E030E0FF27E7FDEB
:10055000F0952E1B3F0B261737073CF090E0439792
:10056000242F30E0281739073CF08091A3008F5FDB
:100570008093A3008D9888C02091A3008091A20051
:100580003091A20090E0831B9109883891050CF00E
:100590007BC0213009F078C084E18093A20038D17B
:1005A00063E070E0D5D09DEF981B90939D006CC0E8
:1005B0001091A3002DD160919C0070E0C9D00097EC
:1005C00009F043C0163008F040C08091A300882392
:1005D00021F481E08093A30057C01AD16091970065
:1005E00070E0B6D08093A2008091A200843120F404
:1005F0008091A2008C5E0DC0809197002091A20096
:1006000090E0821B9109843191052CF48091A20025
:1006100084518093A200FCD068E270E099D0865F9C
:1006200080939D00F5D02091A20062E070E090D010
:10063000009711F42C3328F480919D0081958093CC
:100640009D008D9A10929F001FC010919F000091F5
:10065000A300DED060919A0020E030E070E078D016
:10066000009711F421E030E090E0011191E080E08A
:10067000112309F481E0892390E0822393230097DA
:1006800019F081E080939F008091A300853029F4C8
:100690008091A3008F5F8093A30015DD10929E00D0
:1006A000FF91EF91BF91AF919F918F917F916F914A
:1006B0005F914F913F912F911F910F910F900FBE1E
:1006C0000F901F9018958FE187BB8DE088BB80E06D
:1006D00090E0ADD09093990080939800809198001D
:1006E0009091990001969093990080939800809141
:1006F00098009091990090D0609198007091990025
:1007000080E090E098D0E5DD81E08093A30085B79C
:10071000877E85BFA0DC789485B7806285BF889589
:1007200085B78F7D85BFF8CFAA1BBB1B51E107C0E2
:10073000AA1FBB1FA617B70710F0A61BB70B881F71
:10074000991F5A95A9F780959095BC01CD01089500
:1007500097FB092E07260AD077FD04D0E5DF06D0E7
:1007600000201AF4709561957F4F0895F6F79095E3
:1007700081959F4F0895A0E0B0E0E0ECF3E0B7C0B2
:10078000EC01688179818A819B8161157105810500
:10079000910549F484E2A82E89EDB82E8BE5C82E88
:1007A00087E0D82E02C05B016C01C601B5012DE1C6
:1007B00033EF41E050E078D027EA31E440E050E008
:1007C0005AD07B018C01C601B5012DE133EF41E028
:1007D00050E06AD0CA01B90124E13BE040E050E0BA
:1007E0004AD0E61AF70A080B190BD801C70117FF00
:1007F00004C081509040A040B04888839983AA8368
:10080000BB839F77EAE0CDB7DEB78DC0B4DF089534
:100810008DE890E0B0DF0895AA27BB2780938D0074
:1008200090938E00A0938F00B09390000895A8E15C
:10083000B0E042E005C011D0272F10C0DC01862FA8
:10084000E82FE199FECF1FBA05C0EEBBE09AE39511
:100850000DB20D924150C8F70895262FE199FECFB1
:100860001CBA1FBA8EBB2DBB0FB6F894E29AE19A60
:100870000FBE01960895FF27EE27BB27AA2760FF2A
:1008800004C0A20FB31FE41FF51F220F331F441F24
:10089000551F969587957795679589F70097760701
:1008A00071F7CF01BD01089597FB092E05260ED0E3
:1008B00057FD04D04BD00AD0001C38F45095409519
:1008C000309521953F4F4F4F5F4F0895F6F7909524
:1008D0008095709561957F4F8F4F9F4F08952F9210
:1008E0003F924F925F926F927F928F929F92AF92C0
:1008F000BF92CF92DF92EF92FF920F931F93CF930D
:10090000DF93CDB7DEB7CA1BDB0B0FB6F894DEBFA3
:100910000FBECDBF09942A88398848885F846E84C9
:100920007D848C849B84AA84B984C884DF80EE8013
:10093000FD800C811B81AA81B981CE0FD11D0FB61C
:10094000F894DEBF0FBECDBFED010895A1E21A2ECF
:10095000AA1BBB1BFD010DC0AA1FBB1FEE1FFF1F63
:10096000A217B307E407F50720F0A21BB30BE40BB3
:10097000F50B661F771F881F991F1A9469F76095FA
:100980007095809590959B01AC01BD01CF010895B4
:04099000F894FFCF09
:100994000210080401005AA8DFFCFFECCAA27A5630
:1009A4003A25160C0703020100000911171A1A1838
:1009B40015110D09060403020101010100010000E3
:0209C400000031
:00000001FF
