:100000001DC05DC236C035C034C033C032C031C03F
:1000100030C0A4C22EC02DC02CC02BC02AC029C005
:1000200028C082C085C0BAC018C130C15AC1A0C1A1
:10003000F3C1B4C1F1C1D6C1EFC1F4C111241FBED7
:10004000CFE5D2E0DEBFCDBF10E0A0E6B0E0E2E851
:10005000FBE002C005900D92A239B107D9F710E07C
:10006000A2E9B0E001C01D92A03AB107E1F72DD49A
:1000700086C5C6CF82EA8FBD80E18EBD8EB5826017
:100080008EBD12BC8FEF90E095BD84BD1BBC1ABC29
:1000900019BC18BC82E080BF95E093BF89BF89E19D
:1000A00086BF80E48BBF089580E68BBB80E593EC30
:1000B0000197F1F78FED8BBBE0E6F0E0DF0120E583
:1000C00033EC9BB38D91809589238BBBC90101973C
:1000D000F1F78BB38F698BBB80E0A636B80789F741
:1000E0008FEB8BBB20E533EC9BB38191809589230B
:1000F0008BBBC9010197F1F78BB38F698BBB80E094
:10010000E636F80789F780E593EC0197F1F7089553
:1001100074D49C01E0919F00F0E0ED30F10508F00F
:1001200086C1EF5EFF4F099410929D0098989998B0
:10013000C90166E070E0EDD3E82FF0E0E05AFF4F30
:10014000908190939D00217093B39E7F922B93BBDF
:1001500030919C0023B3217093B39695969591703E
:10016000831759F4291749F483B3869586958095AA
:10017000817093B39E7F982B93BB83B380958170DE
:10018000880F93B39D7F982B93BB83B3807209F440
:100190004EC180919D008093930055C066E070E051
:1001A000B8D3E82FF0E0E05AFF4F808180939D00A4
:1001B000C90134E0880F991F3A95E1F766E070E0D5
:1001C000A8D390919D00E82FF0E0E05AFF4F4081C6
:1001D000941761F4823028F090919D0031975081FE
:1001E00003C090919D005181952B03C090919D007B
:1001F000942B90939D00217093B39E7F922B93BB81
:1002000030919C0023B3217093B39695969591708D
:10021000831759F4291749F483B3869586958095F9
:10022000817093B39E7F982B93BB83B3809581702D
:10023000880F93B39D7F982B93BB83B3807209F48F
:10024000F6C04093930093B3990F990F990F907153
:1002500083B38F7E892B83BB089583709070823027
:10026000910561F08330910561F08130910519F0BD
:1002700087E080939D0085E180939D008AE88093CC
:100280009D0088E980939D0098981DC083709070B0
:100290008230910561F08330910561F081309105E4
:1002A00019F08FE080939D0085E980939D008EE892
:1002B00080939D008AE980939D00922F917083B373
:1002C0008E7F892B83BB83B380958170880F93B316
:1002D0009D7F982B93BB83B3807209F4A8C0C9019A
:1002E00034C0982F917083B38E7F892B83BB83B3E7
:1002F00080958170880F93B39D7F982B93BB40911D
:100300009B0093B3917083B38695869581709817FF
:1003100029F4442319F080919C0004C0C90166E0CF
:1003200070E0F7D2E82FF0E0E05AFF4F808180952F
:100330008F7980939D0083B3807209F478C0C901DE
:1003400024E0880F991F2A95E1F766E070E0E1D27A
:10035000FC01E05AFF4F80818093930083B3809526
:1003600081708295807F93B39F7E982B93BB089575
:10037000837090708230910561F08330910561F057
:100380008130910519F087E080939D0085E180938D
:100390009D008AE880939D0088E915C08370907065
:1003A0008230910561F08330910561F081309105D3
:1003B00019F08FE080939D0085E980939D008EE881
:1003C00080939D008AE980939D00989A999A83B3BF
:1003D000807269F1C90166E070E09BD2FC01E05ACD
:1003E000FF4F15C066E070E094D29C01E82FF0E06A
:1003F000E05AFF4F808180958F7980939D00989A75
:10040000999A83B3807299F0205A3F4FF901808105
:10041000809393009C98089580919F008F5F8093B4
:100420009F0008958FE980939D00989A999A089566
:10043000E4D267E370E081D2809580939700DDD2AB
:1004400060E170E07AD28C5F80939800D6D26CE045
:1004500070E073D28C5F8093960010929A00109295
:100460009B009D98CAD268E070E067D28E5A809354
:100470009400C3D269E170E060D2809580939500CA
:10048000BCD266E070E059D280939C00B6D262E0A4
:1004900070E053D28170880F880F93B39B7F982BA5
:1004A00093BB83B38695869580958170880F880F5E
:1004B000880F93B3977F982B93BB2ADE08951F92E2
:1004C0000F920FB60F9211242F933F934F935F9388
:1004D0006F937F938F939F93AF93BF93EF93FF930C
:1004E00080919A00882339F18FE98BBB1BBC1ABC21
:1004F00019BC18BC83B382958695869583708095C8
:1005000081708295880F880F807C93B39F7B982B96
:1005100093BB83B3807449F08BDF1092920081E02B
:1005200080939F0085B7877E05C010929A0085B79B
:10053000877E806185BF80E48ABFFF91EF91BF9184
:10054000AF919F918F917F916F915F914F913F916B
:100550002F910F900FBE0F901F9018951F920F9222
:100560000FB60F9211240F931F932F933F934F9326
:100570005F936F937F938F939F93AF93BF93EF930B
:10058000FF9380919A008F5F80939A0080919A00E8
:10059000843100F580919F008823E1F080919D00D7
:1005A00080958BBB83B3817049F0E0919A00F0E0B5
:1005B000EA59FF4F808190E09BBD8ABD83B3827072
:1005C00049F0E0919A00F0E0EA59FF4F808190E015
:1005D00099BD88BD83B3807291F130919A002091CA
:1005E0009E0080919E0040919A0090E0439650E0DA
:1005F0008417950724F1231710F5809193008095B7
:100600008BBB83B3807171F0E0919A0080919E0062
:10061000F0E0E81BF109EA59FF4F808190E09BBDB3
:100620008ABD0DC0E0919A0080919E00F0E0E81B29
:10063000F109EA59FF4F808190E099BD88BD809112
:100640009B008823C1F130919A0020919400809101
:10065000940040919A0090E0439650E084179507EB
:1006600054F1231740F5E0919C00F0E0E05AFF4F71
:10067000808180958BBB83B3847069F0E0919A0090
:1006800080919400F0E0E81BF109E658FF4F80816B
:1006900090E09BBD8ABD83B3887069F0E0919A00B9
:1006A00080919400F0E0E81BF109E658FF4F80814B
:1006B00090E099BD88BD90919A008091950098171F
:1006C00009F0F0C08091970081508093970080914D
:1006D00097008823C9F480919200982F9F5F909390
:1006E0009200863068F09E9810929A008FE98BBB3A
:1006F0001BBC1ABC19BC18BC85B7877E806185BF3E
:1007000097DE10929F00CEC083B3807209F44AC076
:1007100090919E0080919900890F80939E00809116
:100720009E008431E0F480919F008130A1F565D175
:1007300063E070E002D19DEF981B909399002091A7
:100740009E008091990030E0992787FD90959095C3
:1007500081959F4F281739070CF090C01CC08091DD
:10076000950040919E0060919E0020919500E0913F
:10077000990070E030E0FF27E7FDF0952E1B3F0B5E
:100780002617370744F090E04397242F30E02817CE
:1007900039070CF473C080919F008F5F80939F0096
:1007A0009D986CC010919F0028D16091980070E0D6
:1007B000C4D0009709F043C01C3008F040C08091BD
:1007C0009F00882321F481E080939F0057C015D1BA
:1007D0006091950070E0B1D080939E0080919E0062
:1007E000843120F480919E008C5E0DC08091950034
:1007F00020919E0090E0821B9109843191052CF498
:1008000080919E00845180939E00F7D068E270E052
:1008100094D0865F80939900F0D020919E0062E092
:1008200070E08BD0009711F42C3328F4809199005C
:100830008195809399009D9A10929B001FC0109102
:100840009B0000919F00D9D06091960020E030E09D
:1008500070E073D0009711F421E030E090E00111D6
:1008600091E080E0112309F481E0892390E0822364
:100870009323009719F081E080939B0090919F0053
:1008800020919F0080919F00293021F0973011F036
:100890008B3029F480919F008F5F80939F0038DC1C
:1008A00010929A00FF91EF91BF91AF919F918F911C
:1008B0007F916F915F914F913F912F911F910F9178
:1008C0000F900FBE0F901F901895CF93DF938FEF6F
:1008D0008ABB8FE98BBB86E090E09ED0EC0121962D
:1008E000CE018FD086E090E0BE019BD09E9AA0DD25
:1008F00081E080939F000CDC85B7877E85BFBADBE3
:10090000789485B7806285BF889585B78F7D85BFD0
:10091000F8CFAA1BBB1B51E107C0AA1FBB1FA6171C
:10092000B70710F0A61BB70B881F991F5A95A9F798
:1009300080959095BC01CD01089597FB092E07265F
:100940000AD077FD04D0E5DF06D000201AF47095B8
:1009500061957F4F0895F6F7909581959F4F089583
:10096000A0E0B0E0E5EBF4E0B9C0EC01688179818A
:100970008A819B81611571058105910549F484E2A5
:10098000A82E89EDB82E8BE5C82E87E0D82E02C0A0
:100990005B016C01C601B5012DE133EF41E050E090
:1009A0007AD027EA31E440E050E05CD07B018C0152
:1009B000C601B5012DE133EF41E050E06CD0CA0132
:1009C000B90124E13BE040E050E04CD0E61AF70AE0
:1009D000080B190BD801C70117FF04C081509040C4
:1009E000A040B04888839983AA83BB839F77EAE0BD
:1009F000CDB7DEB78FC0B4DF08958EE890E0B0DFEA
:100A00000895AA27BB2780938E0090938F00A09310
:100A10009000B09391000895A8E1B0E042E050E06A
:100A200005C012D0272F11C0DC01CB01FC01E199D8
:100A3000FECF06C0FFBBEEBBE09A31960DB20D9221
:100A400041505040B8F70895262FE199FECF1CBAC7
:100A50009FBB8EBB2DBB0FB6F894E29AE19A0FBEF6
:100A600001960895FF27EE27BB27AA2760FF04C041
:100A7000A20FB31FE41FF51F220F331F441F551F82
:100A8000969587957795679589F70097760771F71B
:100A9000CF01BD01089597FB092E05260ED057FD05
:100AA00004D04BD00AD0001C38F4509540953095B6
:100AB00021953F4F4F4F5F4F0895F6F790958095E2
:100AC000709561957F4F8F4F9F4F08952F923F9262
:100AD0004F925F926F927F928F929F92AF92BF924E
:100AE000CF92DF92EF92FF920F931F93CF93DF93FA
:100AF000CDB7DEB7CA1BDB0B0FB6F894DEBF0FBE57
:100B0000CDBF09942A88398848885F846E847D84A3
:100B10008C849B84AA84B984C884DF80EE80FD80A5
:100B20000C811B81AA81B981CE0FD11D0FB6F8941B
:100B3000DEBF0FBECDBFED010895A1E21A2EAA1BA4
:100B4000BB1BFD010DC0AA1FBB1FEE1FFF1FA2177D
:100B5000B307E407F50720F0A21BB30BE40BF50B7A
:100B6000661F771F881F991F1A9469F76095709503
:100B7000809590959B01AC01BD01CF010895F8943B
:020B8000FFCFA5
:100B8200010204081080005AA8DFFCFFECCAA27A16
:100B9200563A25160C0703020100000911171A1A0A
:100BA2001815110D090604030201010100000100DC
:020BB200000041
:00000001FF
