:1000000010C02AC029C028C027C026C025C024C0CF
:1000100023C095C121C020C01FC01EC01DC01CC070
:100020001BC011241FBECFE5D2E0DEBFCDBF10E064
:10003000A0E6B0E0E2E9F9E002C005900D92A03937
:10004000B107D9F710E0A0E9B0E001C01D92AF39C7
:10005000B107E1F738D39BC4D3CF82EA8FBD80E1EB
:100060008EBD8EB582608EBD12BC8FEF90E095BDC7
:1000700084BD1BBC1ABC19BC18BC82E080BF95E0D3
:1000800093BF89BF89E186BF089587E48BBBE0E613
:10009000F0E0DF0120E533EC9BB38D91809589235F
:1000A0008BBBC9010197F1F78BB387608BBB80E0F5
:1000B000A336B80789F787E28BBB20E533EC9BB307
:1000C0008191809589238BBBC9010197F1F78BB38F
:1000D00087608BBB80E0E336F80789F780E593EC17
:1000E0000197F1F7089591D39C0180919E00833090
:1000F00009F492C0843030F4813091F0823008F0FD
:1001000053C00AC0853009F4C7C0853008F4A1C0C7
:10011000863009F0CCC0C6C010929C00989899987F
:10012000C90163E070E0FDD280939300E0919300F9
:10013000F0E0E05AFF4F808180939C00217083B3F0
:100140008E7F822B83BB3091930020919B0093B3D1
:10015000917083B3869586958170981759F43217FC
:1001600049F483B3869586958095817093B39E7F7D
:10017000982B93BB83B380958170880F93B39D7F39
:10018000982B93BB83B3807209F491C080919C003B
:100190008093910093B3990F990F990F907183B346
:1001A0008F7E892B83BB0895922F917083B38E7FAE
:1001B000892B83BB83B380958170880F93B39D7F18
:1001C000982B93BB40919A0093B3917083B386951B
:1001D00086958170981729F4442319F080919B002B
:1001E00004C0C90163E070E09CD280939300E09169
:1001F0009300F0E0E05AFF4F8081809587708093F4
:100200009C0083B3807209F452C0C90124E0880FB6
:10021000991F2A95E1F715C087E080939C00922FE3
:10022000917083B38E7F892B83BB83B3809581705C
:10023000880F93B39D7F982B93BB83B38072B9F1E2
:10024000C90163E070E06DD2FC01E05AFF4F80818C
:1002500017C0C90163E070E064D280939300E0911D
:100260009300F0E0E05AFF4F808180958770809383
:100270009C00989A999A83B38072C9F080919C00EF
:100280008093910083B3809581708295807F93B332
:100290009F7E982B93BB089580919E008F5F8093E3
:1002A0009E00089587E080939C00989A999A0895FB
:1002B000ACD267E370E049D2809580939600A5D2D6
:1002C00060E170E042D28C5F809397009ED26CE038
:1002D00070E03BD28C5F8093950010929900109251
:1002E0009A009D9892D268E070E02FD28E5A809347
:1002F00092008BD269E170E028D2809580939400BF
:1003000084D263E070E021D280939B007ED262E0D1
:1003100070E01BD28170880F880F93B39B7F982B5E
:1003200093BB83B38695869580958170880F880FDF
:10033000880F93B3977F982B93BBD5DE08951F92B8
:100340000F920FB60F9211240F931F932F933F9389
:100350004F935F936F937F938F939F93AF93BF93CD
:10036000EF93FF93809199008F5F80939900809124
:100370009900843100F580919E008823E1F08091FE
:100380009C0080958BBB83B3817049F0E09199000C
:10039000F0E0ED59FF4F808190E09BBD8ABD83B3B3
:1003A000827049F0E0919900F0E0ED59FF4F8081B3
:1003B00090E099BD88BD83B3807291F1309199002E
:1003C00020919D0080919D004091990090E043967E
:1003D00050E08417950724F1231710F580919100C0
:1003E00080958BBB83B3807171F0E091990080910F
:1003F0009D00F0E0E81BF109ED59FF4F808190E08E
:100400009BBD8ABD0DC0E091990080919D00F0E0F8
:10041000E81BF109ED59FF4F808190E099BD88BD3F
:1004200080919A008823C1F1309199002091920027
:10043000809192004091990090E0439650E084179B
:10044000950754F1231740F5E0919B00F0E0E05A46
:10045000FF4F808180958BBB83B3847069F0E091FE
:10046000990080919200F0E0E81BF109E958FF4FF4
:10047000808190E09BBD8ABD83B3887069F0E09174
:10048000990080919200F0E0E81BF109E958FF4FD4
:10049000808190E099BD88BD9091990080919400F1
:1004A000981709F0FDC080919600815080939600C6
:1004B00080919600882349F4809190008F5F80930B
:1004C0009000F6DE10929E00EBC083B3807209F4B8
:1004D0006FC090919D0080919800890F80939D003E
:1004E00080919D008431E0F480919E008130E9F597
:1004F0008CD163E070E029D19DEF981B9093980018
:1005000020919D008091980030E0992787FD90957B
:10051000909581959F4F281739070CF0B5C025C0DD
:100520008091940020919D0090E0821B9109883871
:10053000910594F18091940040919D0060919D00FF
:1005400020919400E091980070E030E0FF27E7FDF3
:10055000F0952E1B3F0B261737073CF090E0439792
:10056000242F30E0281739073CF080919E008F5FE0
:1005700080939E009D9888C020919E0080919D0050
:1005800030919D0090E0831B9109883891050CF013
:100590007BC0213009F078C084E180939D0035D183
:1005A00063E070E0D2D09DEF981B909398006CC0F0
:1005B00010919E002AD16091970070E0C6D00097FC
:1005C00009F043C0163008F040C080919E00882397
:1005D00021F481E080939E0057C017D16091940070
:1005E00070E0B3D080939D0080919D00843120F411
:1005F00080919D008C5E0DC08091940020919D00A3
:1006000090E0821B9109843191052CF480919D002A
:10061000845180939D00F9D068E270E096D0865FA7
:1006200080939800F2D020919D0062E070E08DD020
:10063000009711F42C3328F48091980081958093D1
:1006400098009D9A10929A001FC010919A000091F4
:100650009E00DBD06091950020E030E070E075D026
:10066000009711F421E030E090E0011191E080E08A
:10067000112309F481E0892390E0822393230097DA
:1006800019F081E080939A0080919E00853029F4D2
:1006900080919E008F5F80939E0025DD10929900CF
:1006A000FF91EF91BF91AF919F918F917F916F914A
:1006B0005F914F913F912F911F910F910F900FBE1E
:1006C0000F901F901895CF93DF9387E68ABB87E042
:1006D0008BBBDBDC80E190E0A7D0EC012196CE0162
:1006E00098D080E190E0BE01A4D0E2DD81E080936B
:1006F0009E00F9DC85B7877E85BFAFDC789480915A
:100700009000863030F0F8941BBA85B7877E806100
:1007100085BF85B7806285BF889585B78F7D85BF8A
:10072000EECFAA1BBB1B51E107C0AA1FBB1FA61718
:10073000B70710F0A61BB70B881F991F5A95A9F78A
:1007400080959095BC01CD01089597FB092E072651
:100750000AD077FD04D0E5DF06D000201AF47095AA
:1007600061957F4F0895F6F7909581959F4F089575
:10077000A0E0B0E0EDEBF3E0B9C0EC016881798175
:100780008A819B81611571058105910549F484E297
:10079000A82E89EDB82E8BE5C82E87E0D82E02C092
:1007A0005B016C01C601B5012DE133EF41E050E082
:1007B0007AD027EA31E440E050E05CD07B018C0144
:1007C000C601B5012DE133EF41E050E06CD0CA0124
:1007D000B90124E13BE040E050E04CD0E61AF70AD2
:1007E000080B190BD801C70117FF04C081509040B6
:1007F000A040B04888839983AA83BB839F77EAE0AF
:10080000CDB7DEB78FC0B4DF08958BE890E0B0DFDE
:100810000895AA27BB2780938B0090938C00A09308
:100820008D00B0938E000895A8E1B0E042E050E062
:1008300005C012D0272F11C0DC01CB01FC01E199CA
:10084000FECF06C0FFBBEEBBE09A31960DB20D9213
:1008500041505040B8F70895262FE199FECF1CBAB9
:100860009FBB8EBB2DBB0FB6F894E29AE19A0FBEE8
:1008700001960895FF27EE27BB27AA2760FF04C033
:10088000A20FB31FE41FF51F220F331F441F551F74
:10089000969587957795679589F70097760771F70D
:1008A000CF01BD01089597FB092E05260ED057FDF7
:1008B00004D04BD00AD0001C38F4509540953095A8
:1008C00021953F4F4F4F5F4F0895F6F790958095D4
:1008D000709561957F4F8F4F9F4F08952F923F9254
:1008E0004F925F926F927F928F929F92AF92BF9240
:1008F000CF92DF92EF92FF920F931F93CF93DF93EC
:10090000CDB7DEB7CA1BDB0B0FB6F894DEBF0FBE48
:10091000CDBF09942A88398848885F846E847D8495
:100920008C849B84AA84B984C884DF80EE80FD8097
:100930000C811B81AA81B981CE0FD11D0FB6F8940D
:10094000DEBF0FBECDBFED010895A1E21A2EAA1B96
:10095000BB1BFD010DC0AA1FBB1FEE1FFF1FA2176F
:10096000B307E407F50720F0A21BB30BE40BF50B6C
:10097000661F771F881F991F1A9469F760957095F5
:10098000809590959B01AC01BD01CF010895F8942D
:02099000FFCF97
:10099200010204005AA8DFFCFFECCAA27A563A25EB
:1009A200160C0703020100000911171A1A18151173
:1009B2000D0906040302010101010001000000000B
:00000001FF
