:100000001DC064C236C035C034C033C032C031C038
:1000100030C0A9C22EC02DC02CC02BC02AC029C000
:1000200028C082C085C0BAC017C12FC159C19FC1A5
:10003000FAC1C6C1F8C1DAC1F6C1FBC111241FBEA5
:10004000CFE5D2E0DEBFCDBF10E0A0E6B0E0E0E853
:10005000FBE002C005900D92A239B107D9F710E07C
:10006000A2E9B0E001C01D92A03AB107E1F722D4A5
:1000700085C5C6CF82EA8FBD80E18EBD8EB5826018
:100080008EBD12BC8FEF90E095BD84BD1BBC1ABC29
:1000900019BC18BC82E080BF95E093BF89BF89E19D
:1000A00086BF80E48BBF089580E68BBB80E593EC30
:1000B0000197F1F78FED8BBBE0E6F0E0DF0120E583
:1000C00033EC9BB38D91809589238BBBC90101973C
:1000D000F1F78BB38F698BBB80E0A636B80789F741
:1000E0008FEB8BBB20E533EC9BB38191809589230B
:1000F0008BBBC9010197F1F78BB38F698BBB80E094
:10010000E636F80789F780E593EC0197F1F7089553
:1001100073D49C01E0919F00F0E0ED30F10508F010
:100120008DC1EF5EFF4F099410929D0098989998A9
:10013000C90166E070E0ECD3E82FF0E0E05AFF4F31
:10014000908190939D00217093B39E7F922B93BBDF
:1001500030919C0023B3217093B39695969591703E
:10016000831759F4291749F483B3869586958095AA
:10017000817093B39E7F982B93BB83B380958170DE
:10018000880F93B39D7F982B93BB83B3807209F440
:1001900055C180919D008093930055C066E070E04A
:1001A000B7D3E82FF0E0E05AFF4F808180939D00A5
:1001B000C90134E0880F991F3A95E1F766E070E0D5
:1001C000A7D390919D00E82FF0E0E05AFF4F4081C7
:1001D000941761F4823028F090919D0031975081FE
:1001E00003C090919D005181952B03C090919D007B
:1001F000942B90939D00217093B39E7F922B93BB81
:1002000030919C0023B3217093B39695969591708D
:10021000831759F4291749F483B3869586958095F9
:10022000817093B39E7F982B93BB83B3809581702D
:10023000880F93B39D7F982B93BB83B3807209F48F
:10024000FDC04093930093B3990F990F990F90714C
:1002500083B38F7E892BE5C08370907082309105C7
:1002600061F08330910561F08130910519F087E0EC
:1002700080939D0085E180939D008AE880939D0096
:1002800088E980939D0098981DC08370907082309B
:10029000910561F08330910561F08130910519F08D
:1002A0008FE080939D0085E980939D008EE8809388
:1002B0009D008AE980939D00922F917083B38E7F79
:1002C000892B83BB83B380958170880F93B39D7F07
:1002D000982B93BB83B3807209F4B0C0C90134C0BA
:1002E000982F917083B38E7F892B83BB83B38095C6
:1002F0008170880F93B39D7F982B93BB40919B0097
:1003000093B3917083B3869586958170981729F47D
:10031000442319F080919C0004C0C90166E070E09C
:10032000F7D2E82FF0E0E05AFF4F808180958F7977
:1003300080939D0083B3807209F480C0C90124E0DA
:10034000880F991F2A95E1F766E070E0E1D2FC0181
:10035000E05AFF4F80818093930083B38095817032
:100360008295807F93B39F7E982B93BB0895837073
:1003700090708230910561F08330910561F0813099
:10038000910519F087E080939D0085E180939D00A1
:100390008AE880939D0088E980939D00989A999AB5
:1003A00083B3807209F44AC0C90166E070E0B0D23C
:1003B000FC01E05AFF4F8081809393009C98089540
:1003C000837090708230910561F08330910561F007
:1003D0008130910519F08FE080939D0085E980932D
:1003E0009D008EE880939D008AE90AC066E070E077
:1003F0008FD2E82FF0E0E05AFF4F808180958F790F
:1004000080939D00989A999A83B38072B9F08091F5
:100410009D008093930021702295207F83B38F7E6F
:10042000822B83BB089580919F008F5F80939F00F4
:1004300008958FE980939D00989A999A0895DCD247
:1004400067E370E079D2809580939700D5D260E120
:1004500070E072D28C5F80939800CED26CE070E036
:100460006BD28C5F8093960010929A0010929B0042
:100470009D98C2D268E070E05FD28E5A809394005B
:10048000BBD269E170E058D2809580939500B4D2D8
:1004900066E070E051D280939C00AED262E070E0E2
:1004A0004BD28170880F880F93B39B7F982B93BB9F
:1004B00083B38695869580958170880F880F880F05
:1004C00093B3977F982B93BB23DE08951F920F92CF
:1004D0000FB60F9211242F933F934F935F936F9317
:1004E0007F938F939F93AF93BF93EF93FF938091ED
:1004F0009A00882329F18FE98BBB1BBC1ABC19BC5D
:1005000018BC83B38295869586958370809581709B
:100510008295880F880F807C93B39F7B982B93BB29
:1005200083B3807439F08BDF81E080939F0085B7BF
:10053000877E05C010929A0085B7877E806185BF4F
:1005400080E48ABFFF91EF91BF91AF919F918F910E
:100550007F916F915F914F913F912F910F900FBEBF
:100560000F901F9018951F920F920FB60F921124A3
:100570000F931F932F933F934F935F936F937F93AB
:100580008F939F93AF93BF93EF93FF9380919A00C4
:100590008F5F80939A0080919A00843100F580915A
:1005A0009F008823E1F080919D0080958BBB83B3F1
:1005B000817049F0E0919A00F0E0EA59FF4F8081A4
:1005C00090E09BBD8ABD83B3827049F0E0919A00B0
:1005D000F0E0EA59FF4F808190E099BD88BD83B378
:1005E000807291F130919A0020919E0080919E003E
:1005F00040919A0090E0439650E08417950724F1CB
:10060000231710F58091930080958BBB83B3807185
:1006100071F0E0919A0080919E00F0E0E81BF109F2
:10062000EA59FF4F808190E09BBD8ABD0DC0E091EB
:100630009A0080919E00F0E0E81BF109EA59FF4F13
:10064000808190E099BD88BD80919B008823C1F195
:1006500030919A00209194008091940040919A00EA
:1006600090E0439650E08417950754F1231740F526
:10067000E0919C00F0E0E05AFF4F808180958BBBB9
:1006800083B3847069F0E0919A0080919400F0E067
:10069000E81BF109E658FF4F808190E09BBD8ABDC1
:1006A00083B3887069F0E0919A0080919400F0E043
:1006B000E81BF109E658FF4F808190E099BD88BDA5
:1006C00090919A0080919500981709F0E0C0809170
:1006D000970081508093970080919700882349F478
:1006E000809192008F5F80939200A9DE10929F000C
:1006F000CEC083B3807209F44AC090919E0080916D
:100700009900890F80939E0080919E008431E0F4CF
:1007100080919F008130A1F56FD163E070E00CD132
:100720009DEF981B9093990020919E0080919900D5
:1007300030E0992787FD9095909581959F4F2817D8
:1007400039070CF090C01CC08091950040919E002C
:1007500060919E0020919500E091990070E030E05A
:10076000FF27E7FDF0952E1B3F0B2617370744F0B8
:1007700090E04397242F30E0281739070CF473C01A
:1007800080919F008F5F80939F009D986CC0109117
:100790009F0032D16091980070E0CED0009709F0B0
:1007A00043C01C3008F040C080919F00882321F492
:1007B00081E080939F0057C01FD16091950070E049
:1007C000BBD080939E0080919E00843120F4809164
:1007D0009E008C5E0DC08091950020919E0090E05F
:1007E000821B9109843191052CF480919E008451E3
:1007F00080939E0001D168E270E09ED0865F809376
:100800009900FAD020919E0062E070E095D00097A8
:1008100011F42C3328F480919900819580939900EC
:100820009D9A10929B001FC010919B0000919F0009
:10083000E3D06091960020E030E070E07DD000973A
:1008400011F421E030E090E0011191E080E011230B
:1008500009F481E0892390E082239323009719F023
:1008600081E080939B0090919F0020919F00809158
:100870009F00293021F0973011F08B3029F48091BE
:100880009F008F5F80939F0043DC10929A00FF913E
:10089000EF91BF91AF919F918F917F916F915F91F8
:1008A0004F913F912F911F910F910F900FBE0F907D
:1008B0001F901895CF93DF938FEF8ABB8FE98BBB87
:1008C00086E090E0A8D0EC012196CE0199D086E098
:1008D00090E0BE01A5D09E9AB2DD81E080939F009A
:1008E00017DC85B7877E85BFC5DB78948091920041
:1008F000863030F09E981BBA85B7877E806185BFB1
:1009000085B7806285BF889585B78F7D85BFEECF1F
:10091000AA1BBB1B51E107C0AA1FBB1FA617B70725
:1009200010F0A61BB70B881F991F5A95A9F7809541
:100930009095BC01CD01089597FB092E07260AD09A
:1009400077FD04D0E5DF06D000201AF4709561959C
:100950007F4F0895F6F7909581959F4F0895A0E0F9
:10096000B0E0E4EBF4E0B9C0EC01688179818A8100
:100970009B81611571058105910549F484E2A82EDA
:1009800089EDB82E8BE5C82E87E0D82E02C05B011A
:100990006C01C601B5012DE133EF41E050E07AD0A2
:1009A00027EA31E440E050E05CD07B018C01C601D5
:1009B000B5012DE133EF41E050E06CD0CA01B9013F
:1009C00024E13BE040E050E04CD0E61AF70A080B87
:1009D000190BD801C70117FF04C081509040A040F7
:1009E000B04888839983AA83BB839F77EAE0CDB719
:1009F000DEB78FC0B4DF08958EE890E0B0DF0895D1
:100A0000AA27BB2780938E0090938F00A09390001D
:100A1000B09391000895A8E1B0E042E050E005C035
:100A200012D0272F11C0DC01CB01FC01E199FECFD0
:100A300006C0FFBBEEBBE09A31960DB20D9241505D
:100A40005040B8F70895262FE199FECF1CBA9FBBFE
:100A50008EBB2DBB0FB6F894E29AE19A0FBE0196B9
:100A60000895FF27EE27BB27AA2760FF04C0A20F27
:100A7000B31FE41FF51F220F331F441F551F969508
:100A800087957795679589F70097760771F7CF0176
:100A9000BD01089597FB092E05260ED057FD04D001
:100AA0004BD00AD0001C38F45095409530952195D4
:100AB0003F4F4F4F5F4F0895F6F790958095709593
:100AC00061957F4F8F4F9F4F08952F923F924F9286
:100AD0005F926F927F928F929F92AF92BF92CF92CE
:100AE000DF92EF92FF920F931F93CF93DF93CDB7D7
:100AF000DEB7CA1BDB0B0FB6F894DEBF0FBECDBF4F
:100B000009942A88398848885F846E847D848C841F
:100B10009B84AA84B984C884DF80EE80FD800C8128
:100B20001B81AA81B981CE0FD11D0FB6F894DEBF0B
:100B30000FBECDBFED010895A1E21A2EAA1BBB1B6B
:100B4000FD010DC0AA1FBB1FEE1FFF1FA217B30799
:100B5000E407F50720F0A21BB30BE40BF50B661FAF
:100B6000771F881F991F1A9469F760957095809573
:100B700090959B01AC01BD01CF010895F894FFCF82
:100B8000010204081080005AA8DFFCFFECCAA27A18
:100B9000563A25160C0703020100000911171A1A0C
:100BA0001815110D090604030201010100000100DE
:020BB000000043
:00000001FF
