:1000000010C02BC02AC029C028C027C068C025C086
:1000100024C023C022C021C020C01FC01EC01DC0DC
:100020001CC011241FBECFE5D2E0DEBFCDBF10E063
:10003000A0E6B0E0E6EAF1E003C0C89531960D9283
:10004000A236B107D1F710E0A2E6B0E001C01D92E0
:10005000AA36B107E1F72CD0A5C0D2CF80E886BD83
:1000600016BC8FEF8ABB85E08093620080E18093AD
:10007000630085E18093640080E28093650085E2FF
:100080008093660080E38093670085E38093680037
:1000900080E48093690088E08EBD8EB581608EBD5E
:1000A00082E08CB984E690E09BBD8ABD7894089587
:1000B000CFE5D2E0DEBFCDBFD1DFA8E8B3E1C0E03D
:1000C000D0E08A2F9B2F0197F1F7E2E6F0E097E06E
:1000D00080818F5F8193915097FFFACFF2CF1F926B
:1000E0000F920FB60F9211248F939F93809160000F
:1000F0008BBB909161009F5F90936100992319F4ED
:100100008FEF8093600080916200891729F48091BD
:1001100060008E7F8093600080916300891729F4CE
:10012000809160008D7F80936000809164008917CA
:1001300029F4809160008B7F80936000809165003E
:10014000891729F480916000877F809360008091F7
:100150006600891729F4809160008F7E809360008B
:1001600080916700891729F4809160008F7D8093CA
:10017000600080916800891729F4809160008F7B6E
:100180008093600080916900891729F48091600054
:100190008F77809360009F918F910F900FBE0F908B
:0601A0001F901895FFCF2F
:0201A600FFFF59
:00000001FF
